{
  "contractName": "ExerciceSolution",
  "abi": [
    {
      "inputs": [
        {
          "internalType": "contract IAAVELendingPool",
          "name": "_pool",
          "type": "address"
        },
        {
          "internalType": "contract IERC20",
          "name": "_aDAI",
          "type": "address"
        },
        {
          "internalType": "contract IERC20",
          "name": "_DAI",
          "type": "address"
        },
        {
          "internalType": "contract IERC20",
          "name": "_USDC",
          "type": "address"
        },
        {
          "internalType": "contract IERC20",
          "name": "_variableDebtUSDC",
          "type": "address"
        }
      ],
      "stateMutability": "nonpayable",
      "type": "constructor"
    },
    {
      "anonymous": false,
      "inputs": [
        {
          "indexed": false,
          "internalType": "address",
          "name": "reserve",
          "type": "address"
        },
        {
          "indexed": false,
          "internalType": "address",
          "name": "user",
          "type": "address"
        },
        {
          "indexed": false,
          "internalType": "address",
          "name": "onBehalfOf",
          "type": "address"
        },
        {
          "indexed": false,
          "internalType": "uint256",
          "name": "amount",
          "type": "uint256"
        },
        {
          "indexed": false,
          "internalType": "uint256",
          "name": "borrowRateMode",
          "type": "uint256"
        },
        {
          "indexed": false,
          "internalType": "uint16",
          "name": "referral",
          "type": "uint16"
        }
      ],
      "name": "Borrow",
      "type": "event"
    },
    {
      "anonymous": false,
      "inputs": [
        {
          "indexed": false,
          "internalType": "address",
          "name": "reserve",
          "type": "address"
        },
        {
          "indexed": false,
          "internalType": "address",
          "name": "user",
          "type": "address"
        },
        {
          "indexed": false,
          "internalType": "address",
          "name": "onBehalfOf",
          "type": "address"
        },
        {
          "indexed": false,
          "internalType": "uint256",
          "name": "amount",
          "type": "uint256"
        },
        {
          "indexed": false,
          "internalType": "uint16",
          "name": "referral",
          "type": "uint16"
        }
      ],
      "name": "Deposit",
      "type": "event"
    },
    {
      "anonymous": false,
      "inputs": [
        {
          "indexed": false,
          "internalType": "address",
          "name": "reserve",
          "type": "address"
        },
        {
          "indexed": false,
          "internalType": "address",
          "name": "user",
          "type": "address"
        },
        {
          "indexed": false,
          "internalType": "address",
          "name": "repayer",
          "type": "address"
        },
        {
          "indexed": false,
          "internalType": "uint256",
          "name": "amount",
          "type": "uint256"
        }
      ],
      "name": "Repay",
      "type": "event"
    },
    {
      "anonymous": false,
      "inputs": [
        {
          "indexed": false,
          "internalType": "address",
          "name": "reserve",
          "type": "address"
        },
        {
          "indexed": false,
          "internalType": "address",
          "name": "user",
          "type": "address"
        },
        {
          "indexed": false,
          "internalType": "address",
          "name": "to",
          "type": "address"
        },
        {
          "indexed": false,
          "internalType": "uint256",
          "name": "amount",
          "type": "uint256"
        }
      ],
      "name": "Withdraw",
      "type": "event"
    },
    {
      "stateMutability": "payable",
      "type": "fallback"
    },
    {
      "inputs": [],
      "name": "DAI",
      "outputs": [
        {
          "internalType": "contract IERC20",
          "name": "",
          "type": "address"
        }
      ],
      "stateMutability": "view",
      "type": "function"
    },
    {
      "inputs": [],
      "name": "Owner",
      "outputs": [
        {
          "internalType": "address",
          "name": "",
          "type": "address"
        }
      ],
      "stateMutability": "view",
      "type": "function"
    },
    {
      "inputs": [],
      "name": "USDC",
      "outputs": [
        {
          "internalType": "contract IERC20",
          "name": "",
          "type": "address"
        }
      ],
      "stateMutability": "view",
      "type": "function"
    },
    {
      "inputs": [],
      "name": "aDAI",
      "outputs": [
        {
          "internalType": "contract IERC20",
          "name": "",
          "type": "address"
        }
      ],
      "stateMutability": "view",
      "type": "function"
    },
    {
      "inputs": [],
      "name": "pool",
      "outputs": [
        {
          "internalType": "contract IAAVELendingPool",
          "name": "",
          "type": "address"
        }
      ],
      "stateMutability": "view",
      "type": "function"
    },
    {
      "inputs": [],
      "name": "variableDebtUSDC",
      "outputs": [
        {
          "internalType": "contract IERC20",
          "name": "",
          "type": "address"
        }
      ],
      "stateMutability": "view",
      "type": "function"
    },
    {
      "stateMutability": "payable",
      "type": "receive"
    },
    {
      "inputs": [],
      "name": "getBalance",
      "outputs": [
        {
          "internalType": "uint256",
          "name": "",
          "type": "uint256"
        }
      ],
      "stateMutability": "view",
      "type": "function"
    },
    {
      "inputs": [
        {
          "internalType": "address payable",
          "name": "_to",
          "type": "address"
        }
      ],
      "name": "sendViaCall",
      "outputs": [],
      "stateMutability": "payable",
      "type": "function"
    },
    {
      "inputs": [],
      "name": "depositSomeTokens",
      "outputs": [],
      "stateMutability": "nonpayable",
      "type": "function"
    },
    {
      "inputs": [],
      "name": "withdrawSomeTokens",
      "outputs": [],
      "stateMutability": "nonpayable",
      "type": "function"
    },
    {
      "inputs": [],
      "name": "borrowSomeTokens",
      "outputs": [],
      "stateMutability": "nonpayable",
      "type": "function"
    },
    {
      "inputs": [],
      "name": "repaySomeTokens",
      "outputs": [],
      "stateMutability": "nonpayable",
      "type": "function"
    },
    {
      "inputs": [],
      "name": "doAFlashLoan",
      "outputs": [],
      "stateMutability": "nonpayable",
      "type": "function"
    },
    {
      "inputs": [],
      "name": "repayFlashLoan",
      "outputs": [],
      "stateMutability": "nonpayable",
      "type": "function"
    }
  ],
  "bytecode": "0x608060405234801561001057600080fd5b5060405161196d38038061196d833981810160405260a081101561003357600080fd5b810190808051906020019092919080519060200190929190805190602001909291908051906020019092919080519060200190929190505050336000806101000a81548173ffffffffffffffffffffffffffffffffffffffff021916908373ffffffffffffffffffffffffffffffffffffffff16021790555084600160006101000a81548173ffffffffffffffffffffffffffffffffffffffff021916908373ffffffffffffffffffffffffffffffffffffffff16021790555083600260006101000a81548173ffffffffffffffffffffffffffffffffffffffff021916908373ffffffffffffffffffffffffffffffffffffffff16021790555082600360006101000a81548173ffffffffffffffffffffffffffffffffffffffff021916908373ffffffffffffffffffffffffffffffffffffffff16021790555081600460006101000a81548173ffffffffffffffffffffffffffffffffffffffff021916908373ffffffffffffffffffffffffffffffffffffffff16021790555080600560006101000a81548173ffffffffffffffffffffffffffffffffffffffff021916908373ffffffffffffffffffffffffffffffffffffffff1602179055505050505050611768806102056000396000f3fe6080604052600436106100e15760003560e01c806389a302711161007f578063db50609f11610059578063db50609f14610351578063e0bab4c414610368578063f6b96bae146103bf578063fc6669b6146103d6576100e8565b806389a302711461028c578063b4a99a4e146102e3578063d871f5941461033a576100e8565b80631a38a4fb116100bb5780631a38a4fb146101835780634b5bd34f146101da578063689d82c0146101f1578063830c29ae14610248576100e8565b806312065fe0146100ea57806316f0115b146101155780631a231a711461016c576100e8565b366100e857005b005b3480156100f657600080fd5b506100ff6103ed565b6040518082815260200191505060405180910390f35b34801561012157600080fd5b5061012a6103f5565b604051808273ffffffffffffffffffffffffffffffffffffffff1673ffffffffffffffffffffffffffffffffffffffff16815260200191505060405180910390f35b34801561017857600080fd5b5061018161041b565b005b34801561018f57600080fd5b5061019861065e565b604051808273ffffffffffffffffffffffffffffffffffffffff1673ffffffffffffffffffffffffffffffffffffffff16815260200191505060405180910390f35b3480156101e657600080fd5b506101ef610684565b005b3480156101fd57600080fd5b506102066109d3565b604051808273ffffffffffffffffffffffffffffffffffffffff1673ffffffffffffffffffffffffffffffffffffffff16815260200191505060405180910390f35b61028a6004803603602081101561025e57600080fd5b81019080803573ffffffffffffffffffffffffffffffffffffffff1690602001909291905050506109f9565b005b34801561029857600080fd5b506102a1610b36565b604051808273ffffffffffffffffffffffffffffffffffffffff1673ffffffffffffffffffffffffffffffffffffffff16815260200191505060405180910390f35b3480156102ef57600080fd5b506102f8610b5c565b604051808273ffffffffffffffffffffffffffffffffffffffff1673ffffffffffffffffffffffffffffffffffffffff16815260200191505060405180910390f35b34801561034657600080fd5b5061034f610b81565b005b34801561035d57600080fd5b50610366610f26565b005b34801561037457600080fd5b5061037d61116b565b604051808273ffffffffffffffffffffffffffffffffffffffff1673ffffffffffffffffffffffffffffffffffffffff16815260200191505060405180910390f35b3480156103cb57600080fd5b506103d4611191565b005b3480156103e257600080fd5b506103eb61161e565b005b600047905090565b600160009054906101000a900473ffffffffffffffffffffffffffffffffffffffff1681565b6000629896809050600160009054906101000a900473ffffffffffffffffffffffffffffffffffffffff1673ffffffffffffffffffffffffffffffffffffffff1663a415bcad600460009054906101000a900473ffffffffffffffffffffffffffffffffffffffff168360026000306040518663ffffffff1660e01b8152600401808673ffffffffffffffffffffffffffffffffffffffff1673ffffffffffffffffffffffffffffffffffffffff1681526020018581526020018481526020018361ffff1681526020018273ffffffffffffffffffffffffffffffffffffffff1673ffffffffffffffffffffffffffffffffffffffff16815260200195505050505050600060405180830381600087803b15801561053857600080fd5b505af115801561054c573d6000803e3d6000fd5b505050507f39884ffb02602a13fb58b50134a8735509d9c8f846d749abcb003939e159f733600460009054906101000a900473ffffffffffffffffffffffffffffffffffffffff1633308460026000604051808773ffffffffffffffffffffffffffffffffffffffff1673ffffffffffffffffffffffffffffffffffffffff1681526020018673ffffffffffffffffffffffffffffffffffffffff1673ffffffffffffffffffffffffffffffffffffffff1681526020018573ffffffffffffffffffffffffffffffffffffffff1673ffffffffffffffffffffffffffffffffffffffff1681526020018481526020018381526020018261ffff168152602001965050505050505060405180910390a150565b600260009054906101000a900473ffffffffffffffffffffffffffffffffffffffff1681565b6000624c4b409050600460009054906101000a900473ffffffffffffffffffffffffffffffffffffffff1673ffffffffffffffffffffffffffffffffffffffff1663095ea7b3600160009054906101000a900473ffffffffffffffffffffffffffffffffffffffff16836040518363ffffffff1660e01b8152600401808373ffffffffffffffffffffffffffffffffffffffff1673ffffffffffffffffffffffffffffffffffffffff16815260200182815260200192505050602060405180830381600087803b15801561075757600080fd5b505af115801561076b573d6000803e3d6000fd5b505050506040513d602081101561078157600080fd5b8101908080519060200190929190505050506000600160009054906101000a900473ffffffffffffffffffffffffffffffffffffffff1673ffffffffffffffffffffffffffffffffffffffff1663573ade81600460009054906101000a900473ffffffffffffffffffffffffffffffffffffffff16846002306040518563ffffffff1660e01b8152600401808573ffffffffffffffffffffffffffffffffffffffff1673ffffffffffffffffffffffffffffffffffffffff1681526020018481526020018381526020018273ffffffffffffffffffffffffffffffffffffffff1673ffffffffffffffffffffffffffffffffffffffff168152602001945050505050602060405180830381600087803b15801561089d57600080fd5b505af11580156108b1573d6000803e3d6000fd5b505050506040513d60208110156108c757600080fd5b810190808051906020019092919050505090507f4cdde6e09bb755c9a5589ebaec640bbfedff1362d4b255ebf8339782b9942faa600460009054906101000a900473ffffffffffffffffffffffffffffffffffffffff16333084604051808573ffffffffffffffffffffffffffffffffffffffff1673ffffffffffffffffffffffffffffffffffffffff1681526020018473ffffffffffffffffffffffffffffffffffffffff1673ffffffffffffffffffffffffffffffffffffffff1681526020018373ffffffffffffffffffffffffffffffffffffffff1673ffffffffffffffffffffffffffffffffffffffff16815260200182815260200194505050505060405180910390a15050565b600560009054906101000a900473ffffffffffffffffffffffffffffffffffffffff1681565b6000809054906101000a900473ffffffffffffffffffffffffffffffffffffffff1673ffffffffffffffffffffffffffffffffffffffff163373ffffffffffffffffffffffffffffffffffffffff1614610a5257600080fd5b600060608273ffffffffffffffffffffffffffffffffffffffff164760405180600001905060006040518083038185875af1925050503d8060008114610ab4576040519150601f19603f3d011682016040523d82523d6000602084013e610ab9565b606091505b509150915081610b31576040517f08c379a00000000000000000000000000000000000000000000000000000000081526004018080602001828103825260148152602001807f4661696c656420746f2073656e6420457468657200000000000000000000000081525060200191505060405180910390fd5b505050565b600460009054906101000a900473ffffffffffffffffffffffffffffffffffffffff1681565b6000809054906101000a900473ffffffffffffffffffffffffffffffffffffffff1681565b600064e8d4a510009050606060405180602001604052806000815250905060606001604051908082528060200260200182016040528015610bd15781602001602082028038833980820191505090505b509050600460009054906101000a900473ffffffffffffffffffffffffffffffffffffffff1681600081518110610c0457fe5b602002602001019073ffffffffffffffffffffffffffffffffffffffff16908173ffffffffffffffffffffffffffffffffffffffff168152505060606001604051908082528060200260200182016040528015610c705781602001602082028038833980820191505090505b5090508381600081518110610c8157fe5b60200260200101818152505060606007604051908082528060200260200182016040528015610cbf5781602001602082028038833980820191505090505b509050600081600081518110610cd157fe5b602002602001018181525050600160009054906101000a900473ffffffffffffffffffffffffffffffffffffffff1673ffffffffffffffffffffffffffffffffffffffff1663ab9c4b5d30858585308a60006040518863ffffffff1660e01b8152600401808873ffffffffffffffffffffffffffffffffffffffff1673ffffffffffffffffffffffffffffffffffffffff1681526020018060200180602001806020018773ffffffffffffffffffffffffffffffffffffffff1673ffffffffffffffffffffffffffffffffffffffff168152602001806020018661ffff16815260200185810385528b818151815260200191508051906020019060200280838360005b83811015610def578082015181840152602081019050610dd4565b5050505090500185810384528a818151815260200191508051906020019060200280838360005b83811015610e31578082015181840152602081019050610e16565b50505050905001858103835289818151815260200191508051906020019060200280838360005b83811015610e73578082015181840152602081019050610e58565b50505050905001858103825287818151815260200191508051906020019080838360005b83811015610eb2578082015181840152602081019050610e97565b50505050905090810190601f168015610edf5780820380516001836020036101000a031916815260200191505b509b505050505050505050505050600060405180830381600087803b158015610f0757600080fd5b505af1158015610f1b573d6000803e3d6000fd5b505050505050505050565b600068056bc75e2d6310000090506000600160009054906101000a900473ffffffffffffffffffffffffffffffffffffffff1673ffffffffffffffffffffffffffffffffffffffff166369328dec600360009054906101000a900473ffffffffffffffffffffffffffffffffffffffff1684306040518463ffffffff1660e01b8152600401808473ffffffffffffffffffffffffffffffffffffffff1673ffffffffffffffffffffffffffffffffffffffff1681526020018381526020018273ffffffffffffffffffffffffffffffffffffffff1673ffffffffffffffffffffffffffffffffffffffff1681526020019350505050602060405180830381600087803b15801561103557600080fd5b505af1158015611049573d6000803e3d6000fd5b505050506040513d602081101561105f57600080fd5b810190808051906020019092919050505090507f3115d1449a7b732c986cba18244e897a450f61e1bb8d589cd2e69e6c8924f9f7600460009054906101000a900473ffffffffffffffffffffffffffffffffffffffff16333084604051808573ffffffffffffffffffffffffffffffffffffffff1673ffffffffffffffffffffffffffffffffffffffff1681526020018473ffffffffffffffffffffffffffffffffffffffff1673ffffffffffffffffffffffffffffffffffffffff1681526020018373ffffffffffffffffffffffffffffffffffffffff1673ffffffffffffffffffffffffffffffffffffffff16815260200182815260200194505050505060405180910390a15050565b600360009054906101000a900473ffffffffffffffffffffffffffffffffffffffff1681565b6000600360009054906101000a900473ffffffffffffffffffffffffffffffffffffffff1673ffffffffffffffffffffffffffffffffffffffff166370a08231306040518263ffffffff1660e01b8152600401808273ffffffffffffffffffffffffffffffffffffffff1673ffffffffffffffffffffffffffffffffffffffff16815260200191505060206040518083038186803b15801561123257600080fd5b505afa158015611246573d6000803e3d6000fd5b505050506040513d602081101561125c57600080fd5b8101908080519060200190929190505050116112e0576040517f08c379a00000000000000000000000000000000000000000000000000000000081526004018080602001828103825260138152602001807f436f6e747261637420686173206e6f204441490000000000000000000000000081525060200191505060405180910390fd5b6000680ad78ebc5ac62000009050600360009054906101000a900473ffffffffffffffffffffffffffffffffffffffff1673ffffffffffffffffffffffffffffffffffffffff1663095ea7b3600160009054906101000a900473ffffffffffffffffffffffffffffffffffffffff16836040518363ffffffff1660e01b8152600401808373ffffffffffffffffffffffffffffffffffffffff1673ffffffffffffffffffffffffffffffffffffffff16815260200182815260200192505050602060405180830381600087803b1580156113b957600080fd5b505af11580156113cd573d6000803e3d6000fd5b505050506040513d60208110156113e357600080fd5b810190808051906020019092919050505050600160009054906101000a900473ffffffffffffffffffffffffffffffffffffffff1673ffffffffffffffffffffffffffffffffffffffff1663e8eda9df600360009054906101000a900473ffffffffffffffffffffffffffffffffffffffff16833060006040518563ffffffff1660e01b8152600401808573ffffffffffffffffffffffffffffffffffffffff1673ffffffffffffffffffffffffffffffffffffffff1681526020018481526020018373ffffffffffffffffffffffffffffffffffffffff1673ffffffffffffffffffffffffffffffffffffffff1681526020018261ffff168152602001945050505050600060405180830381600087803b15801561150157600080fd5b505af1158015611515573d6000803e3d6000fd5b505050507fde6857219544bb5b7746f48ed30be6386fefc61b2f864cacf559893bf50fd951600360009054906101000a900473ffffffffffffffffffffffffffffffffffffffff163330846000604051808673ffffffffffffffffffffffffffffffffffffffff1673ffffffffffffffffffffffffffffffffffffffff1681526020018573ffffffffffffffffffffffffffffffffffffffff1673ffffffffffffffffffffffffffffffffffffffff1681526020018473ffffffffffffffffffffffffffffffffffffffff1673ffffffffffffffffffffffffffffffffffffffff1681526020018381526020018261ffff1681526020019550505050505060405180910390a150565b600064e8d4a510009050600460009054906101000a900473ffffffffffffffffffffffffffffffffffffffff1673ffffffffffffffffffffffffffffffffffffffff1663095ea7b3600160009054906101000a900473ffffffffffffffffffffffffffffffffffffffff16836040518363ffffffff1660e01b8152600401808373ffffffffffffffffffffffffffffffffffffffff1673ffffffffffffffffffffffffffffffffffffffff16815260200182815260200192505050602060405180830381600087803b1580156116f357600080fd5b505af1158015611707573d6000803e3d6000fd5b505050506040513d602081101561171d57600080fd5b8101908080519060200190929190505050505056fea26469706673582212207881de393cca4c839308e236114a70001a99654dd60f483b9c8fb5f303bbc80464736f6c63430006020033",
  "source": "pragma solidity ^0.6.0;\r\nimport \"./utils/IAAVELendingPool.sol\";\r\nimport \"@openzeppelin/contracts/token/ERC20/IERC20.sol\";\r\n\r\ncontract ExerciceSolution {\r\n    address public Owner;\r\n    IAAVELendingPool public pool;\r\n    IERC20 public aDAI;\r\n    IERC20 public DAI;\r\n\tIERC20 public USDC;\r\n\tIERC20 public variableDebtUSDC;\r\n\r\n    constructor( IAAVELendingPool _pool, IERC20 _aDAI, IERC20 _DAI, IERC20 _USDC, IERC20 _variableDebtUSDC ) \r\n\tpublic \r\n\t{\r\n        Owner = msg.sender;\r\n        pool = _pool; //0xE0fBa4Fc209b4948668006B2bE61711b7f465bAe\r\n        aDAI = _aDAI; //0xdcf0af9e59c002fa3aa091a46196b37530fd48a8\r\n        DAI = _DAI; // 0xff795577d9ac8bd7d90ee22b6c1703490b6512fd\r\n\t\tUSDC = _USDC; // 0xe22da380ee6b445bb8273c81944adeb6e8450422\r\n\t\tvariableDebtUSDC = _variableDebtUSDC; //0xbe9b058a0f2840130372a81ebb3181dce02be95\r\n\t}\r\n\r\n    modifier onlyOwner() {\r\n        require(msg.sender == Owner );\r\n        _;\r\n    }\r\n\r\n    fallback () external payable \r\n\t{}\r\n    \r\n\treceive () external payable \r\n\t{}\r\n\r\n    function getBalance() public view returns (uint) {\r\n        return address(this).balance;\r\n    }\r\n\r\n    function sendViaCall(address payable _to) public payable onlyOwner {\r\n        // Call returns a boolean value indicating success or failure.\r\n        (bool sent, bytes memory data) = _to.call.value(address(this).balance)(\"\");\r\n        require(sent, \"Failed to send Ether\");\r\n    }\r\n\r\n    event Deposit(address reserve,address user,address onBehalfOf,uint256 amount,uint16 referral);\r\n    function depositSomeTokens() public {\r\n\r\n        // Contract should have testnet DAI\r\n\t\trequire(DAI.balanceOf(address(this)) > 0, \"Contract has no DAI\");\r\n        // Approve 200 DAI to LendingPool address\r\n        uint amount = 200 * 10 ** 18;\r\n        DAI.approve(address(pool), amount);\r\n        // Deposit 200 DAI\r\n        pool.deposit(address(DAI), amount,address(this),0);\r\n        emit Deposit(address(DAI), address(msg.sender),address(this),amount,0);\r\n    }\r\n\r\n    event Withdraw(address reserve, address user, address to, uint256 amount);\r\n\tfunction withdrawSomeTokens() public {\r\n        // Contract should have deposited testnet aDAI\r\n\t\t//require(aDAI.balanceOf(address(this)) > 0, \"Contract has not deposited DAI in AAVE\");\r\n        uint256 amount1 = 100 * 10 ** 18;\r\n        uint256 amount = pool.withdraw(address(DAI), amount1, address(this));\r\n        emit Withdraw(address(USDC),address(msg.sender),address(this),amount);\r\n    }\r\n\r\n    event Borrow(address reserve,address user,address onBehalfOf,uint256 amount,uint256 borrowRateMode,uint16 referral);\r\n\tfunction borrowSomeTokens() public {\r\n        uint amount = 10 * 10 ** 6;\r\n        pool.borrow(address(USDC), amount, 2, 0, address(this));\r\n        emit Borrow(address(USDC),address(msg.sender),address(this),amount,2,0);\r\n    }\r\n\r\n    event Repay(address reserve,address user,address repayer,uint256 amount);\r\n\tfunction repaySomeTokens() public {\r\n        // Contract should have borrowed USDC on AAVE \r\n\t\t//require(variableDebtUSDC.balanceOf(address(this)) > 0, \"Contract has not borrowed USDC in AAVE\");\r\n        // Contract should have testnet USDC\r\n\t\t//require(USDC.balanceOf(address(this)) > 0, \"Contract has no USDC\");\r\n        uint256 amount1 = 5 * 10 ** 6;\r\n        USDC.approve(address(pool), amount1);\r\n        uint256 amount = pool.repay(address(USDC), amount1, 2,address(this));\r\n        emit Repay(address(USDC),address(msg.sender),address(this),amount);\r\n    }\r\n\r\n\tfunction doAFlashLoan() public {\r\n        //https://github.com/aave/code-examples-protocol/blob/main/V2/Flash%20Loan%20-%20Batch/MyV2FlashLoan.sol\r\n        uint256 amountToBorrow = 1000000 * 1000000;\r\n        bytes memory params = \"\";\r\n        address[] memory assets = new address[](1);\r\n        assets[0] = address(USDC);\r\n        uint256[] memory amounts = new uint256[](1);\r\n        amounts[0] = amountToBorrow;\r\n        uint256[] memory modes = new uint256[](7);\r\n        modes[0] = 0;\r\n        pool.flashLoan(address(this), assets, amounts, modes,address(this), params, 0);\r\n    }\r\n\r\n\tfunction repayFlashLoan() external {\r\n        uint256 amountToBorrow = 1000000 * 1000000;\r\n        USDC.approve(address(pool), amountToBorrow);\r\n    }\r\n\r\n}",
  "sourcePath": "C:\\Users\\BJeab\\OneDrive\\Documents\\ESILV\\Monnaies Numériques\\TD10\\lending\\lending-101\\contracts\\ExerciceSolution.sol",
  "compiler": {
    "name": "solc",
    "version": "0.6.2+commit.bacdbe57.Emscripten.clang"
  },
  "schemaVersion": "3.4.3",
  "updatedAt": "2022-01-22T16:49:23.723Z",
  "devdoc": {
    "methods": {}
  },
  "userdoc": {
    "methods": {}
  }
}